{
  "_format": "hh-sol-artifact-1",
  "contractName": "N2MERC721Upgradeable",
  "sourceName": "contracts/beacon/N2MERC721Upgradeable.sol",
  "abi": [
    {
      "inputs": [
        {
          "internalType": "address",
          "name": "factoryAddress",
          "type": "address"
        }
      ],
      "stateMutability": "nonpayable",
      "type": "constructor"
    },
    {
      "stateMutability": "payable",
      "type": "fallback"
    },
    {
      "inputs": [],
      "name": "n2mVersions",
      "outputs": [
        {
          "internalType": "uint256",
          "name": "implementationVersion",
          "type": "uint256"
        },
        {
          "internalType": "uint256",
          "name": "beaconVersion",
          "type": "uint256"
        }
      ],
      "stateMutability": "view",
      "type": "function"
    },
    {
      "stateMutability": "payable",
      "type": "receive"
    }
  ],
  "bytecode": "0x60a03461006a57601f61035838819003918201601f19168301916001600160401b0383118484101761006f5780849260209460405283398101031261006a57516001600160a01b038116810361006a576080526040516102d2908161008682396080518161012a0152f35b600080fd5b634e487b7160e01b600052604160045260246000fdfe60806040526004361015610018575b366100e5576100e5565b6000803560e01c63db198ff01461002f575061000e565b346100d657807ffffffffffffffffffffffffffffffffffffffffffffffffffffffffffffffffc3601126100d6577fcb93c48f0000000000000000000000000000000000000000000000000000000060805260206080600481305afa80156100e05781906100ae575b604080519182526103e8602083015290f35b0390f35b5060203d81116100d9575b806100c560209261021f565b126100d657506100aa608051610098565b80fd5b503d6100b9565b610290565b6040517f84663e5300000000000000000000000000000000000000000000000000000000815273ffffffffffffffffffffffffffffffffffffffff90602081600481857f0000000000000000000000000000000000000000000000000000000000000000165afa9081156100e057600091610161575b50610200565b60203d81116101f9575b7fffffffffffffffffffffffffffffffffffffffffffffffffffffffffffffffe0601f820116820182811067ffffffffffffffff8211176101cc576020918391604052810103126101c8575191821682036100d65750803861015b565b5080fd5b6024847f4e487b710000000000000000000000000000000000000000000000000000000081526041600452fd5b503d61016b565b6000808092368280378136915af43d82803e1561021b573d90f35b3d90fd5b601f7fffffffffffffffffffffffffffffffffffffffffffffffffffffffffffffffe09101166080016080811067ffffffffffffffff82111761026157604052565b7f4e487b7100000000000000000000000000000000000000000000000000000000600052604160045260246000fd5b6040513d6000823e3d90fdfea2646970667358221220861ec675dd9290090a1b676409e42bfff19192eada1cff18df4c06bc7747eb4e64736f6c63430008140033",
  "linkReferences": {},
  "deployedLinkReferences": {}
}