{
  "_format": "hh-sol-artifact-1",
  "contractName": "N2MERC1155",
  "sourceName": "contracts/N2MERC1155.sol",
  "abi": [
    {
      "inputs": [
        {
          "internalType": "address",
          "name": "libraryAddress",
          "type": "address"
        },
        {
          "internalType": "address payable",
          "name": "factoryAddress",
          "type": "address"
        }
      ],
      "stateMutability": "nonpayable",
      "type": "constructor"
    },
    {
      "inputs": [
        {
          "internalType": "address",
          "name": "filtered",
          "type": "address"
        }
      ],
      "name": "AddressFiltered",
      "type": "error"
    },
    {
      "inputs": [],
      "name": "CantLowerCurrentPercentages",
      "type": "error"
    },
    {
      "inputs": [],
      "name": "CantRevealYetWaitABitToBeAbleToRedeem",
      "type": "error"
    },
    {
      "inputs": [],
      "name": "CantSetBaseURIAndPlaceholderAtTheSameTime",
      "type": "error"
    },
    {
      "inputs": [],
      "name": "CollectionSoldOut",
      "type": "error"
    },
    {
      "inputs": [],
      "name": "ContractMetadataURIAlreadyFixed",
      "type": "error"
    },
    {
      "inputs": [],
      "name": "InputSizeMismatch",
      "type": "error"
    },
    {
      "inputs": [],
      "name": "InvalidAmount",
      "type": "error"
    },
    {
      "inputs": [],
      "name": "InvalidDropDate",
      "type": "error"
    },
    {
      "inputs": [],
      "name": "InvalidInputSizesDontMatch",
      "type": "error"
    },
    {
      "inputs": [],
      "name": "InvalidMintFee",
      "type": "error"
    },
    {
      "inputs": [],
      "name": "InvalidMintFeeForFreeMinting",
      "type": "error"
    },
    {
      "inputs": [],
      "name": "InvalidMintingType",
      "type": "error"
    },
    {
      "inputs": [],
      "name": "InvalidPercentageOrDiscountValues",
      "type": "error"
    },
    {
      "inputs": [],
      "name": "InvalidPhaseWithoutDate",
      "type": "error"
    },
    {
      "inputs": [],
      "name": "InvalidRevenuePercentage",
      "type": "error"
    },
    {
      "inputs": [],
      "name": "InvalidTokenId",
      "type": "error"
    },
    {
      "inputs": [],
      "name": "MaxPerAddressExceeded",
      "type": "error"
    },
    {
      "inputs": [],
      "name": "MetadataAlreadyFixed",
      "type": "error"
    },
    {
      "inputs": [],
      "name": "NewBaseURICantBeEmpty",
      "type": "error"
    },
    {
      "inputs": [],
      "name": "NewPlaceholderCantBeEmpty",
      "type": "error"
    },
    {
      "inputs": [],
      "name": "NoBaseURINorPlaceholderSet",
      "type": "error"
    },
    {
      "inputs": [],
      "name": "NonTransferrableSoulboundNFT",
      "type": "error"
    },
    {
      "inputs": [],
      "name": "NotEnoughAmountToMint",
      "type": "error"
    },
    {
      "inputs": [],
      "name": "NothingToRedeem",
      "type": "error"
    },
    {
      "inputs": [],
      "name": "OnlyAffiliateOrN2M",
      "type": "error"
    },
    {
      "inputs": [],
      "name": "OnlyOwnerOrN2M",
      "type": "error"
    },
    {
      "inputs": [],
      "name": "PresaleInvalidMintingType",
      "type": "error"
    },
    {
      "inputs": [],
      "name": "PresaleNotOpen",
      "type": "error"
    },
    {
      "inputs": [],
      "name": "PublicSaleNotOpen",
      "type": "error"
    },
    {
      "inputs": [],
      "name": "ReentrancyGuard",
      "type": "error"
    },
    {
      "inputs": [],
      "name": "RoyaltyFeeTooHigh",
      "type": "error"
    },
    {
      "inputs": [],
      "name": "SaleFinished",
      "type": "error"
    },
    {
      "inputs": [],
      "name": "SignatureExpired",
      "type": "error"
    },
    {
      "inputs": [],
      "name": "SignatureMismatch",
      "type": "error"
    },
    {
      "inputs": [],
      "name": "TokenAlreadyMinted",
      "type": "error"
    },
    {
      "inputs": [],
      "name": "TotalSupplyMustBeGreaterThanZero",
      "type": "error"
    },
    {
      "inputs": [],
      "name": "WaitUntilDropDate",
      "type": "error"
    },
    {
      "anonymous": false,
      "inputs": [
        {
          "indexed": true,
          "internalType": "address",
          "name": "affiliate",
          "type": "address"
        }
      ],
      "name": "AffiliateSell",
      "type": "event"
    },
    {
      "anonymous": false,
      "inputs": [
        {
          "indexed": true,
          "internalType": "address",
          "name": "account",
          "type": "address"
        },
        {
          "indexed": true,
          "internalType": "address",
          "name": "operator",
          "type": "address"
        },
        {
          "indexed": false,
          "internalType": "bool",
          "name": "approved",
          "type": "bool"
        }
      ],
      "name": "ApprovalForAll",
      "type": "event"
    },
    {
      "anonymous": false,
      "inputs": [
        {
          "indexed": false,
          "internalType": "uint8",
          "name": "version",
          "type": "uint8"
        }
      ],
      "name": "Initialized",
      "type": "event"
    },
    {
      "anonymous": false,
      "inputs": [
        {
          "indexed": true,
          "internalType": "address",
          "name": "operator",
          "type": "address"
        },
        {
          "indexed": true,
          "internalType": "address",
          "name": "from",
          "type": "address"
        },
        {
          "indexed": true,
          "internalType": "address",
          "name": "to",
          "type": "address"
        },
        {
          "indexed": false,
          "internalType": "uint256[]",
          "name": "ids",
          "type": "uint256[]"
        },
        {
          "indexed": false,
          "internalType": "uint256[]",
          "name": "values",
          "type": "uint256[]"
        }
      ],
      "name": "TransferBatch",
      "type": "event"
    },
    {
      "anonymous": false,
      "inputs": [
        {
          "indexed": true,
          "internalType": "address",
          "name": "operator",
          "type": "address"
        },
        {
          "indexed": true,
          "internalType": "address",
          "name": "from",
          "type": "address"
        },
        {
          "indexed": true,
          "internalType": "address",
          "name": "to",
          "type": "address"
        },
        {
          "indexed": false,
          "internalType": "uint256",
          "name": "id",
          "type": "uint256"
        },
        {
          "indexed": false,
          "internalType": "uint256",
          "name": "value",
          "type": "uint256"
        }
      ],
      "name": "TransferSingle",
      "type": "event"
    },
    {
      "anonymous": false,
      "inputs": [
        {
          "indexed": false,
          "internalType": "string",
          "name": "value",
          "type": "string"
        },
        {
          "indexed": true,
          "internalType": "uint256",
          "name": "id",
          "type": "uint256"
        }
      ],
      "name": "URI",
      "type": "event"
    },
    {
      "stateMutability": "payable",
      "type": "fallback"
    },
    {
      "inputs": [
        {
          "internalType": "address[]",
          "name": "to",
          "type": "address[]"
        },
        {
          "internalType": "bool",
          "name": "soulbound",
          "type": "bool"
        }
      ],
      "name": "airdropRandom",
      "outputs": [],
      "stateMutability": "payable",
      "type": "function"
    },
    {
      "inputs": [
        {
          "internalType": "address[]",
          "name": "to",
          "type": "address[]"
        },
        {
          "internalType": "bool",
          "name": "soulbound",
          "type": "bool"
        }
      ],
      "name": "airdropSequential",
      "outputs": [],
      "stateMutability": "payable",
      "type": "function"
    },
    {
      "inputs": [
        {
          "internalType": "address[]",
          "name": "to",
          "type": "address[]"
        },
        {
          "internalType": "uint256[]",
          "name": "tokenIds",
          "type": "uint256[]"
        },
        {
          "internalType": "bool",
          "name": "soulbound",
          "type": "bool"
        }
      ],
      "name": "airdropSpecify",
      "outputs": [],
      "stateMutability": "payable",
      "type": "function"
    },
    {
      "inputs": [
        {
          "internalType": "address",
          "name": "account",
          "type": "address"
        },
        {
          "internalType": "uint256",
          "name": "id",
          "type": "uint256"
        }
      ],
      "name": "balanceOf",
      "outputs": [
        {
          "internalType": "uint256",
          "name": "",
          "type": "uint256"
        }
      ],
      "stateMutability": "view",
      "type": "function"
    },
    {
      "inputs": [
        {
          "internalType": "address",
          "name": "owner",
          "type": "address"
        }
      ],
      "name": "balanceOf",
      "outputs": [
        {
          "internalType": "uint256",
          "name": "balance",
          "type": "uint256"
        }
      ],
      "stateMutability": "view",
      "type": "function"
    },
    {
      "inputs": [
        {
          "internalType": "address[]",
          "name": "accounts",
          "type": "address[]"
        },
        {
          "internalType": "uint256[]",
          "name": "ids",
          "type": "uint256[]"
        }
      ],
      "name": "balanceOfBatch",
      "outputs": [
        {
          "internalType": "uint256[]",
          "name": "",
          "type": "uint256[]"
        }
      ],
      "stateMutability": "view",
      "type": "function"
    },
    {
      "inputs": [
        {
          "internalType": "uint256",
          "name": "id",
          "type": "uint256"
        }
      ],
      "name": "exists",
      "outputs": [
        {
          "internalType": "bool",
          "name": "",
          "type": "bool"
        }
      ],
      "stateMutability": "view",
      "type": "function"
    },
    {
      "inputs": [
        {
          "internalType": "uint256",
          "name": "startId",
          "type": "uint256"
        },
        {
          "internalType": "uint256",
          "name": "endId",
          "type": "uint256"
        }
      ],
      "name": "getSupplies",
      "outputs": [
        {
          "internalType": "uint256[]",
          "name": "supplies",
          "type": "uint256[]"
        },
        {
          "internalType": "uint256",
          "name": "blockNumber",
          "type": "uint256"
        },
        {
          "internalType": "uint256",
          "name": "blockTimestamp",
          "type": "uint256"
        }
      ],
      "stateMutability": "view",
      "type": "function"
    },
    {
      "inputs": [
        {
          "internalType": "string",
          "name": "tokenName",
          "type": "string"
        },
        {
          "internalType": "string",
          "name": "tokenSymbol",
          "type": "string"
        },
        {
          "internalType": "uint256",
          "name": "iMintPrice",
          "type": "uint256"
        },
        {
          "internalType": "bytes32",
          "name": "baseURICIDHash",
          "type": "bytes32"
        },
        {
          "internalType": "bytes32",
          "name": "placeholderImageCIDHash",
          "type": "bytes32"
        },
        {
          "components": [
            {
              "internalType": "address",
              "name": "to",
              "type": "address"
            },
            {
              "internalType": "uint16",
              "name": "percentage",
              "type": "uint16"
            }
          ],
          "internalType": "struct IN2M_ERCStorage.RevenueAddress[]",
          "name": "revenueAddresses",
          "type": "tuple[]"
        },
        {
          "internalType": "address",
          "name": "iErc20PaymentAddress",
          "type": "address"
        },
        {
          "internalType": "uint32",
          "name": "iTotalSupply",
          "type": "uint32"
        },
        {
          "internalType": "uint16",
          "name": "iRoyaltyFee",
          "type": "uint16"
        },
        {
          "internalType": "bool",
          "name": "soulboundCollection",
          "type": "bool"
        },
        {
          "internalType": "enum IN2M_ERCStorage.MintingType",
          "name": "iMintingType",
          "type": "uint8"
        }
      ],
      "name": "initialize",
      "outputs": [],
      "stateMutability": "payable",
      "type": "function"
    },
    {
      "inputs": [
        {
          "internalType": "address",
          "name": "owner",
          "type": "address"
        },
        {
          "internalType": "address",
          "name": "operator",
          "type": "address"
        }
      ],
      "name": "isApprovedForAll",
      "outputs": [
        {
          "internalType": "bool",
          "name": "",
          "type": "bool"
        }
      ],
      "stateMutability": "view",
      "type": "function"
    },
    {
      "inputs": [],
      "name": "isMetadataFixed",
      "outputs": [
        {
          "internalType": "bool",
          "name": "",
          "type": "bool"
        }
      ],
      "stateMutability": "view",
      "type": "function"
    },
    {
      "inputs": [],
      "name": "maxPerAddress",
      "outputs": [
        {
          "internalType": "uint16",
          "name": "",
          "type": "uint16"
        }
      ],
      "stateMutability": "view",
      "type": "function"
    },
    {
      "inputs": [],
      "name": "mint",
      "outputs": [],
      "stateMutability": "payable",
      "type": "function"
    },
    {
      "inputs": [
        {
          "internalType": "uint256",
          "name": "amount",
          "type": "uint256"
        },
        {
          "internalType": "address",
          "name": "affiliate",
          "type": "address"
        }
      ],
      "name": "mint",
      "outputs": [],
      "stateMutability": "payable",
      "type": "function"
    },
    {
      "inputs": [
        {
          "internalType": "uint256",
          "name": "amount",
          "type": "uint256"
        }
      ],
      "name": "mint",
      "outputs": [],
      "stateMutability": "payable",
      "type": "function"
    },
    {
      "inputs": [
        {
          "internalType": "address",
          "name": "to",
          "type": "address"
        },
        {
          "internalType": "bytes32",
          "name": "customURICIDHash",
          "type": "bytes32"
        },
        {
          "internalType": "bool",
          "name": "soulbound",
          "type": "bool"
        }
      ],
      "name": "mintCustomURITo",
      "outputs": [],
      "stateMutability": "payable",
      "type": "function"
    },
    {
      "inputs": [
        {
          "internalType": "address",
          "name": "to",
          "type": "address"
        },
        {
          "internalType": "uint256[]",
          "name": "tokenIds",
          "type": "uint256[]"
        },
        {
          "internalType": "bool",
          "name": "freeMinting",
          "type": "bool"
        },
        {
          "internalType": "uint256",
          "name": "customFee",
          "type": "uint256"
        },
        {
          "internalType": "uint256",
          "name": "maxAmount",
          "type": "uint256"
        },
        {
          "internalType": "uint256",
          "name": "amount",
          "type": "uint256"
        },
        {
          "internalType": "bool",
          "name": "soulbound",
          "type": "bool"
        },
        {
          "internalType": "bytes",
          "name": "signature",
          "type": "bytes"
        }
      ],
      "name": "mintPresale",
      "outputs": [],
      "stateMutability": "payable",
      "type": "function"
    },
    {
      "inputs": [],
      "name": "mintPrice",
      "outputs": [
        {
          "internalType": "uint256",
          "name": "",
          "type": "uint256"
        }
      ],
      "stateMutability": "view",
      "type": "function"
    },
    {
      "inputs": [
        {
          "internalType": "address",
          "name": "to",
          "type": "address"
        },
        {
          "internalType": "uint256",
          "name": "amount",
          "type": "uint256"
        }
      ],
      "name": "mintRandomTo",
      "outputs": [],
      "stateMutability": "payable",
      "type": "function"
    },
    {
      "inputs": [
        {
          "internalType": "address",
          "name": "to",
          "type": "address"
        },
        {
          "internalType": "uint256",
          "name": "amount",
          "type": "uint256"
        },
        {
          "internalType": "address",
          "name": "affiliate",
          "type": "address"
        }
      ],
      "name": "mintRandomTo",
      "outputs": [],
      "stateMutability": "payable",
      "type": "function"
    },
    {
      "inputs": [
        {
          "internalType": "address",
          "name": "to",
          "type": "address"
        },
        {
          "internalType": "uint256[]",
          "name": "tokenIds",
          "type": "uint256[]"
        }
      ],
      "name": "mintSpecifyTo",
      "outputs": [],
      "stateMutability": "payable",
      "type": "function"
    },
    {
      "inputs": [
        {
          "internalType": "address",
          "name": "to",
          "type": "address"
        },
        {
          "internalType": "uint256[]",
          "name": "tokenIds",
          "type": "uint256[]"
        },
        {
          "internalType": "address",
          "name": "affiliate",
          "type": "address"
        }
      ],
      "name": "mintSpecifyTo",
      "outputs": [],
      "stateMutability": "payable",
      "type": "function"
    },
    {
      "inputs": [
        {
          "internalType": "address",
          "name": "to",
          "type": "address"
        },
        {
          "internalType": "uint256",
          "name": "amount",
          "type": "uint256"
        },
        {
          "internalType": "address",
          "name": "affiliate",
          "type": "address"
        }
      ],
      "name": "mintTo",
      "outputs": [],
      "stateMutability": "payable",
      "type": "function"
    },
    {
      "inputs": [
        {
          "internalType": "address",
          "name": "to",
          "type": "address"
        },
        {
          "internalType": "uint256",
          "name": "amount",
          "type": "uint256"
        }
      ],
      "name": "mintTo",
      "outputs": [],
      "stateMutability": "payable",
      "type": "function"
    },
    {
      "inputs": [],
      "name": "n2mVersion",
      "outputs": [
        {
          "internalType": "uint256",
          "name": "",
          "type": "uint256"
        }
      ],
      "stateMutability": "pure",
      "type": "function"
    },
    {
      "inputs": [],
      "name": "name",
      "outputs": [
        {
          "internalType": "string",
          "name": "",
          "type": "string"
        }
      ],
      "stateMutability": "view",
      "type": "function"
    },
    {
      "inputs": [],
      "name": "owner",
      "outputs": [
        {
          "internalType": "address",
          "name": "collectionOwner",
          "type": "address"
        }
      ],
      "stateMutability": "view",
      "type": "function"
    },
    {
      "inputs": [],
      "name": "redeemRandom",
      "outputs": [],
      "stateMutability": "payable",
      "type": "function"
    },
    {
      "inputs": [
        {
          "internalType": "uint256",
          "name": "",
          "type": "uint256"
        },
        {
          "internalType": "uint256",
          "name": "salePrice",
          "type": "uint256"
        }
      ],
      "name": "royaltyInfo",
      "outputs": [
        {
          "internalType": "address",
          "name": "receiver",
          "type": "address"
        },
        {
          "internalType": "uint256",
          "name": "royaltyAmount",
          "type": "uint256"
        }
      ],
      "stateMutability": "view",
      "type": "function"
    },
    {
      "inputs": [
        {
          "internalType": "address",
          "name": "from",
          "type": "address"
        },
        {
          "internalType": "address",
          "name": "to",
          "type": "address"
        },
        {
          "internalType": "uint256[]",
          "name": "ids",
          "type": "uint256[]"
        },
        {
          "internalType": "uint256[]",
          "name": "amounts",
          "type": "uint256[]"
        },
        {
          "internalType": "bytes",
          "name": "data",
          "type": "bytes"
        }
      ],
      "name": "safeBatchTransferFrom",
      "outputs": [],
      "stateMutability": "nonpayable",
      "type": "function"
    },
    {
      "inputs": [
        {
          "internalType": "address",
          "name": "from",
          "type": "address"
        },
        {
          "internalType": "address",
          "name": "to",
          "type": "address"
        },
        {
          "internalType": "uint256",
          "name": "id",
          "type": "uint256"
        },
        {
          "internalType": "uint256",
          "name": "amount",
          "type": "uint256"
        },
        {
          "internalType": "bytes",
          "name": "data",
          "type": "bytes"
        }
      ],
      "name": "safeTransferFrom",
      "outputs": [],
      "stateMutability": "nonpayable",
      "type": "function"
    },
    {
      "inputs": [
        {
          "internalType": "address",
          "name": "operator",
          "type": "address"
        },
        {
          "internalType": "bool",
          "name": "approved",
          "type": "bool"
        }
      ],
      "name": "setApprovalForAll",
      "outputs": [],
      "stateMutability": "nonpayable",
      "type": "function"
    },
    {
      "inputs": [
        {
          "internalType": "bytes4",
          "name": "interfaceId",
          "type": "bytes4"
        }
      ],
      "name": "supportsInterface",
      "outputs": [
        {
          "internalType": "bool",
          "name": "",
          "type": "bool"
        }
      ],
      "stateMutability": "view",
      "type": "function"
    },
    {
      "inputs": [],
      "name": "symbol",
      "outputs": [
        {
          "internalType": "string",
          "name": "",
          "type": "string"
        }
      ],
      "stateMutability": "view",
      "type": "function"
    },
    {
      "inputs": [
        {
          "internalType": "uint256",
          "name": "tokenId",
          "type": "uint256"
        }
      ],
      "name": "tokenURI",
      "outputs": [
        {
          "internalType": "string",
          "name": "",
          "type": "string"
        }
      ],
      "stateMutability": "view",
      "type": "function"
    },
    {
      "inputs": [],
      "name": "totalSupply",
      "outputs": [
        {
          "internalType": "uint256",
          "name": "",
          "type": "uint256"
        }
      ],
      "stateMutability": "view",
      "type": "function"
    },
    {
      "inputs": [
        {
          "internalType": "uint256",
          "name": "id",
          "type": "uint256"
        }
      ],
      "name": "totalSupply",
      "outputs": [
        {
          "internalType": "uint256",
          "name": "",
          "type": "uint256"
        }
      ],
      "stateMutability": "view",
      "type": "function"
    },
    {
      "inputs": [
        {
          "internalType": "uint256",
          "name": "tokenId",
          "type": "uint256"
        }
      ],
      "name": "uri",
      "outputs": [
        {
          "internalType": "string",
          "name": "",
          "type": "string"
        }
      ],
      "stateMutability": "view",
      "type": "function"
    },
    {
      "stateMutability": "payable",
      "type": "receive"
    }
  ],
  "bytecode": "0x60c0346200014157601f6200530a38819003918201601f19168301916001600160401b038311848410176200014657808492604094855283398101031262000141578051906001600160a01b039081831683036200014157602001519081168103620001415760805260005460ff8160081c16620000ec5760ff80821603620000b0575b5060a0526040516151ad90816200015d82396080518181816120dd01526141df015260a051816151450152f35b60ff90811916176000557f7f26b83ff96e1f2b6a682f133852f6798a09c465da95921460cefb3847402498602060405160ff8152a13862000083565b60405162461bcd60e51b815260206004820152602760248201527f496e697469616c697a61626c653a20636f6e747261637420697320696e697469604482015266616c697a696e6760c81b6064820152608490fd5b600080fd5b634e487b7160e01b600052604160045260246000fdfe60806040526004361015610015575b3661513957005b60003560e01c8062fdd58e1461026f57806301ffc9a71461026a57806306fdde03146102655780630de77eb8146102605780630e89341c146101cf5780631249c58b1461025b57806318160ddd146102565780631d7df191146102515780631ff4cc7d1461024c5780632a55205a146102475780632eb2c2d614610242578063438b1b4b1461023d5780634402d25414610238578063449a52f8146102335780634a50aa851461022e5780634e1273f4146102295780634f558e79146102245780635066e5c21461021f578063639814e01461021a5780636817c76c1461021557806368fdda33146102105780636ad542401461020b57806370a082311461020657806371e6775f14610201578063798f4794146101fc5780638da5cb5b146101f757806394bf804d146101f257806395d89b41146101ed5780639d13a5ba146101e8578063a0712d68146101e3578063a22cb465146101de578063bd85b039146101d9578063be172edf146101d4578063c87b56dd146101cf578063cb93c48f146101ca578063e985e9c5146101c5578063f242432a146101c05763fefa5d720361000e57611eae565b611d0a565b611cd6565b611cb9565b6105d9565b611bcc565b611ba0565b611a51565b611a33565b611998565b6118f1565b611871565b611838565b61179c565b611557565b611530565b61143c565b6112ef565b611299565b611274565b6111d5565b611119565b610fe1565b610ee1565b610eb6565b610e66565b610e4a565b610c32565b610a1a565b610807565b6107d7565b6107b3565b6106d3565b610590565b61048d565b610303565b6102a6565b73ffffffffffffffffffffffffffffffffffffffff81160361029257565b600080fd5b60c435906102a482610274565b565b346102925760406003193601126102925760206102d16004356102c881610274565b60243590611ebd565b604051908152f35b7fffffffff0000000000000000000000000000000000000000000000000000000081160361029257565b346102925760206003193601126102925760207fffffffff00000000000000000000000000000000000000000000000000000000600435610343816102d9565b167f2a55205a00000000000000000000000000000000000000000000000000000000811490811561037a575b506040519015158152f35b7fd9b67a26000000000000000000000000000000000000000000000000000000008114915081156103de575b81156103b4575b503861036f565b7f01ffc9a700000000000000000000000000000000000000000000000000000000915014386103ad565b7f0e89341c00000000000000000000000000000000000000000000000000000000811491506103a6565b600091031261029257565b60005b8381106104265750506000910152565b8181015183820152602001610416565b907fffffffffffffffffffffffffffffffffffffffffffffffffffffffffffffffe0601f60209361047281518092818752878088019101610413565b0116010190565b90602061048a928181520190610436565b90565b346102925760008060031936011261058d57604051908060dc546104b08161189e565b8085529160019180831690811561054557506001146104ea575b6104e6856104da81870382610aef565b60405191829182610479565b0390f35b925060dc83527f3162b0988d4210bff484413ed451d170a03887272177efc0b7d000f10abe9edf5b82841061052d5750505081016020016104da826104e66104ca565b80546020858701810191909152909301928101610512565b8695506104e6969350602092506104da9491507fffffffffffffffffffffffffffffffffffffffffffffffffffffffffffffff001682840152151560051b82010192936104ca565b80fd5b3461029257600060031936011261029257603354158015906105ba575b6020906040519015158152f35b506020600360ff60455460301c166105d181612173565b1490506105ad565b346102925760208060031936011261029257604051907f01284a4600000000000000000000000000000000000000000000000000000000825260043560048301526000918281602481305afa9283156106ce578093610649575b50506104e6604051928284938452830190610436565b909192503d8082843e61065c8184610aef565b82019183818403126106c65780519067ffffffffffffffff82116106ca570182601f820112156106c65780519161069283610ba6565b936106a06040519586610aef565b83855285848401011161058d5750906106be91848085019101610413565b903880610633565b5080fd5b8280fd5b612085565b6000600319360112610292576106ea603a54614c54565b6106f2614b3d565b60455460ff8160301c1661070581612173565b61078957604580547fffffffffffffffffffffffffffffffffffffffffffffffffffffffff000000001663ffffffff92831660010183169081179091559060455491818360581c161061075f5761075d911633613741565b005b60046040517f5fd48f91000000000000000000000000000000000000000000000000000000008152fd5b60046040517f64151c75000000000000000000000000000000000000000000000000000000008152fd5b3461029257600060031936011261029257602063ffffffff60455416604051908152f35b60406003193601126102925761075d6004356107f281610274565b6024359061080282603a54614cda565b613d16565b60008060031936011261058d5760016108403373ffffffffffffffffffffffffffffffffffffffff166000526041602052604060002090565b01543360009081526041602052604090205480156109f05760016108843373ffffffffffffffffffffffffffffffffffffffff166000526041602052604060002090565b01544311156109c657610938826109759340908115610978575b508460016108cc3373ffffffffffffffffffffffffffffffffffffffff166000526041602052604060002090565b0155846108f93373ffffffffffffffffffffffffffffffffffffffff166000526041602052604060002090565b5560455460481c61ffff16926109327fffffffffffffffffffffffffffffffffffffffffff0000ffffffffffffffffff60455416604555565b33613e0c565b7fffffffffffffffffffffffffffffffffffffffffff0000ffffffffffffffffff6affff0000000000000000006045549260481b16911617604555565b80f35b6109a8915060ff167fffffffffffffffffffffffffffffffffffffffffffffffffffffffffffffff0043166126e7565b438110156109b8575b403861089e565b6109c19061285e565b6109b1565b60046040517f93c4a003000000000000000000000000000000000000000000000000000000008152fd5b60046040517f9890af60000000000000000000000000000000000000000000000000000000008152fd5b34610292576040600319360112610292576040612710610a4561ffff60455460381c166024356126f4565b048151903082526020820152f35b7f4e487b7100000000000000000000000000000000000000000000000000000000600052604160045260246000fd5b67ffffffffffffffff8111610a9657604052565b610a53565b6040810190811067ffffffffffffffff821117610a9657604052565b6020810190811067ffffffffffffffff821117610a9657604052565b60a0810190811067ffffffffffffffff821117610a9657604052565b90601f7fffffffffffffffffffffffffffffffffffffffffffffffffffffffffffffffe0910116810190811067ffffffffffffffff821117610a9657604052565b67ffffffffffffffff8111610a965760051b60200190565b81601f8201121561029257803591610b5f83610b30565b92610b6d6040519485610aef565b808452602092838086019260051b820101928311610292578301905b828210610b97575050505090565b81358152908301908301610b89565b67ffffffffffffffff8111610a9657601f017fffffffffffffffffffffffffffffffffffffffffffffffffffffffffffffffe01660200190565b929192610bec82610ba6565b91610bfa6040519384610aef565b829481845281830111610292578281602093846000960137010152565b9080601f830112156102925781602061048a93359101610be0565b346102925760a060031936011261029257600435610c4f81610274565b60243590610c5c82610274565b67ffffffffffffffff9060443582811161029257610c7e903690600401610b48565b9160643581811161029257610c97903690600401610b48565b9060843590811161029257610cb0903690600401610c17565b92610cba33614f3c565b73ffffffffffffffffffffffffffffffffffffffff93848416943386148015610e0c575b610ce790612d30565b610cf48351855114613597565b8616610d01811515612da1565b610d0d8484898861329e565b60005b8351811015610dc85780610d27610dc39286612057565b51610dbc610db48b610d5b610d3c868c612057565b51948c610da387610d8083610d5b866000526078602052604060002090565b9073ffffffffffffffffffffffffffffffffffffffff16600052602052604060002090565b54610d8d82821015612e12565b0391610d5b846000526078602052604060002090565b556000526078602052604060002090565b9182546126e7565b9055611ffb565b610d10565b509386919461075d966040517f4a39dc06d4c0dbc64b70af90fd698a233a518aa5d07e595d983b8c0526c8f7fb339180610e038a8a83613608565b0390a4336136c6565b50610ce7610e1a3387612c92565b9050610cde565b600319606091011261029257600435610e3981610274565b906024359060443561048a81610274565b61075d610e61610e5936610e21565b819391614976565b613a5e565b604060031936011261029257600435610e7e81610274565b6024359067ffffffffffffffff821161029257610ea261075d923690600401610b48565b90610eb1603a54835190614cda565b613fd8565b60406003193601126102925761075d600435610ed181610274565b60243590610e6182603a54614cda565b606060031936011261029257600435610ef981610274565b6024359067ffffffffffffffff821161029257610f1d61075d923690600401610b48565b90610eb1604435610f2d81610274565b8351614976565b81601f8201121561029257803591610f4b83610b30565b92610f596040519485610aef565b808452602092838086019260051b820101928311610292578301905b828210610f83575050505090565b8380918335610f9181610274565b815201910190610f75565b90815180825260208080930193019160005b828110610fbc575050505090565b835185529381019392810192600101610fae565b90602061048a928181520190610f9c565b346102925760406003193601126102925767ffffffffffffffff60043581811161029257611013903690600401610f34565b906024359081116102925761102c903690600401610b48565b9080518251036110af576110408151611f7d565b9160005b82518110156110a1578061108c61107b61106161109c9487612057565b5173ffffffffffffffffffffffffffffffffffffffff1690565b6110858386612057565b5190611ebd565b6110968287612057565b52611ffb565b611044565b604051806104e68682610fd0565b608460405162461bcd60e51b815260206004820152602960248201527f455243313135353a206163636f756e747320616e6420696473206c656e67746860448201527f206d69736d6174636800000000000000000000000000000000000000000000006064820152fd5b3461029257602060031936011261029257602061114560043560005260aa602052604060002054151590565b6040519015158152f35b9181601f840112156102925782359167ffffffffffffffff8311610292576020808501948460061b01011161029257565b60e4359063ffffffff8216820361029257565b61ffff81160361029257565b61010435906102a482611193565b8015150361029257565b61012435906102a4826111ad565b6101443590600482101561029257565b6101606003193601126102925767ffffffffffffffff60043581811161029257611203903690600401610c17565b6024358281116102925761121b903690600401610c17565b9060a4359283116102925761123761075d93369060040161114f565b61123f610297565b611247611180565b9161125061119f565b936112596111b7565b956112626111c5565b97608435916064359160443591612182565b3461029257600060031936011261029257602061ffff60455460481c16604051908152f35b34610292576000600319360112610292576020603a54604051908152f35b6040600319820112610292576004359067ffffffffffffffff8211610292576112e291600401610f34565b9060243561048a816111ad565b6112f8366112b7565b90611321611304614193565b73ffffffffffffffffffffffffffffffffffffffff163314614148565b604580549260ff8460301c1661133681612173565b6107895761135093835163ffffffff9586918284166126e7565b9160581c161061075f5782519260005b84811061136957005b80836113d761137d61106160019587612057565b8961139b61138f8a5463ffffffff1690565b60010163ffffffff1690565b6113d08163ffffffff167fffffffffffffffffffffffffffffffffffffffffffffffffffffffff000000006045541617604555565b1690613741565b6113e2575b01611360565b61143761140c6113f6875463ffffffff1690565b63ffffffff166000526043602052604060002090565b60017fffffffffffffffffffffffffffffffffffffffffffffffffffffffffffffff00825416179055565b6113dc565b60606003193601126102925760043561145481610274565b60443590611461826111ad565b61146c603a54614c54565b611474614b3d565b60455490600360ff8360301c1661148a81612173565b0361078957604580547fffffffffffffffffffffffffffffffffffffffffffffffffffffffff000000001663ffffffff93841660010184169081179091559160455492818460581c161061075f576114e3921690613741565b611516575b6024356115136114fd60455463ffffffff1690565b63ffffffff166000526044602052604060002090565b55005b61152b61140c6113f660455463ffffffff1690565b6114e8565b346102925760206003193601126102925760206102d160043561155281610274565b612c2f565b60606003193601126102925767ffffffffffffffff60048035828111610292576115849036908301610f34565b916024359081116102925761159c9036908301610b48565b604435926115a9846111ad565b6115b1614211565b80519260458054600260ff8260301c166115ca81612173565b036117515763ffffffff9081811690826115e58851846126e7565b9160581c161061172857855187036116ff579061163291818816011663ffffffff167fffffffffffffffffffffffffffffffffffffffffffffffffffffffff000000006045541617604555565b60005b85811061163e57005b6116488186612057565b511580156116d4575b6116ab57808761167a61166961106160019589612057565b611673848a612057565b5190613741565b611685575b01611635565b6116a661140c6116958389612057565b516000526043602052604060002090565b61167f565b826040517f3f6cc768000000000000000000000000000000000000000000000000000000008152fd5b506116df8186612057565b5182546116f99060581c63ffffffff165b63ffffffff1690565b10611651565b836040517f991f339f000000000000000000000000000000000000000000000000000000008152fd5b836040517f5fd48f91000000000000000000000000000000000000000000000000000000008152fd5b826040517f64151c75000000000000000000000000000000000000000000000000000000008152fd5b61179260409295949395606083526060830190610f9c565b9460208201520152565b346102925760408060031936011261029257602435906004359081831061182a5760019280840190818511611825578385910301908111611825576117e081611f7d565b9260005b828110611802575050506104e692505b51918291429043908461177a565b808691830160005260aa602052846000205461181e8288612057565b52016117e4565b611fcc565b6104e69250606091506117f4565b34610292576000600319360112610292576020611853612091565b73ffffffffffffffffffffffffffffffffffffffff60405191168152f35b60406003193601126102925761075d60043561189860243561189281610274565b82614976565b33613a5e565b90600182811c921680156118e7575b60208310146118b857565b7f4e487b7100000000000000000000000000000000000000000000000000000000600052602260045260246000fd5b91607f16916118ad565b346102925760008060031936011261058d57604051908060dd546119148161189e565b80855291600191808316908115610545575060011461193d576104e6856104da81870382610aef565b925060dd83527fac507b9f8bf86ad8bb770f71cd2b1992902ae0314d93fc0f2bb011d70e7962265b8284106119805750505081016020016104da826104e66104ca565b80546020858701810191909152909301928101611965565b610100600319360112610292576004356119b181610274565b67ffffffffffffffff602435818111610292576119d2903690600401610b48565b916044356119df816111ad565b60c435906119ec826111ad565b60e43594848611610292573660238701121561029257856004013594851161029257366024868801011161029257602461075d96019360a43592608435926064359261424d565b60206003193601126102925761075d60043561189881603a54614cda565b3461029257604060031936011261029257600435611a6e81610274565b602435611a7a816111ad565b611a8382614f3c565b73ffffffffffffffffffffffffffffffffffffffff821691823314611b365781611ad4611b0492610d5b3373ffffffffffffffffffffffffffffffffffffffff166000526079602052604060002090565b9060ff7fffffffffffffffffffffffffffffffffffffffffffffffffffffffffffffff0083541691151516179055565b604051901515815233907f17307eab39ab6107e8899845ad3d59bd9653f200f220920489ca2b5937696c3190602090a3005b608460405162461bcd60e51b815260206004820152602960248201527f455243313135353a2073657474696e6720617070726f76616c2073746174757360448201527f20666f722073656c6600000000000000000000000000000000000000000000006064820152fd5b346102925760206003193601126102925760043560005260aa6020526020604060002054604051908152f35b611bd5366112b7565b90611bde614211565b8051906045549260ff8460301c1693611bf685612173565b60018095036107895763ffffffff8082169181611c1387856126e7565b9160581c161061075f57611c5791818616011663ffffffff167fffffffffffffffffffffffffffffffffffffffffffffffffffffffff000000006045541617604555565b611c604361288b565b4060005b848110611c6d57005b80611c79879284613f38565b84611c9082611c8b611061868b612057565b613741565b611c9c575b5001611c64565b61140c611cb3916000526043602052604060002090565b38611c95565b346102925760006003193601126102925760206040516103e88152f35b34610292576040600319360112610292576020611145600435611cf881610274565b60243590611d0582610274565b612c92565b346102925760a060031936011261029257600435611d2781610274565b602435611d3381610274565b6084359060643560443567ffffffffffffffff841161029257611d5d610975943690600401610c17565b92611d6733614f3c565b73ffffffffffffffffffffffffffffffffffffffff95868116963388148015611e99575b611d9490612d30565b8216611da1811515612da1565b611dbe611dad856131a1565b611db6876131a1565b90858561329e565b600097848952607860205285611df78460408c209073ffffffffffffffffffffffffffffffffffffffff16600052602052604060002090565b54611e0482821015612e12565b868b52607860205203611e3a8460408c209073ffffffffffffffffffffffffffffffffffffffff16600052602052604060002090565b55611e5384610d5b876000526078602052604060002090565b611e5e8782546126e7565b9055604080518681526020810188905233917fc3d58168c5ae7397731d063d5bbf3d657854427343f4c083240f7aacaa2d0f6291a433612fa7565b50611d94611ea73384612c92565b9050611d8b565b61075d610802610e5936610e21565b73ffffffffffffffffffffffffffffffffffffffff811615611f1357611f0f91600052607860205260406000209073ffffffffffffffffffffffffffffffffffffffff16600052602052604060002090565b5490565b608460405162461bcd60e51b815260206004820152602a60248201527f455243313135353a2061646472657373207a65726f206973206e6f742061207660448201527f616c6964206f776e6572000000000000000000000000000000000000000000006064820152fd5b90611f8782610b30565b611f946040519182610aef565b8281527fffffffffffffffffffffffffffffffffffffffffffffffffffffffffffffffe0611fc28294610b30565b0190602036910137565b7f4e487b7100000000000000000000000000000000000000000000000000000000600052601160045260246000fd5b7fffffffffffffffffffffffffffffffffffffffffffffffffffffffffffffffff81146118255760010190565b7f4e487b7100000000000000000000000000000000000000000000000000000000600052603260045260246000fd5b805182101561206b5760209160051b010190565b612028565b90816020910312610292575161048a81610274565b6040513d6000823e3d90fd5b6000906040517f6352211e00000000000000000000000000000000000000000000000000000000815230600482015260208160248173ffffffffffffffffffffffffffffffffffffffff7f0000000000000000000000000000000000000000000000000000000000000000165afa60009181612114575b506121105750565b9150565b61213691925060203d811161213d575b61212e8183610aef565b810190612070565b9038612108565b503d612124565b7f4e487b7100000000000000000000000000000000000000000000000000000000600052602160045260246000fd5b6004111561217d57565b612144565b99979593919a98969492909a6000549b60ff8d60081c1615809d819e612310575b81156122f0575b5015612286576121ee9b8d6121e560017fffffffffffffffffffffffffffffffffffffffffffffffffffffffffffffff006000541617600055565b612250576128c5565b6121f457565b6122217fffffffffffffffffffffffffffffffffffffffffffffffffffffffffffff00ff60005416600055565b604051600181527f7f26b83ff96e1f2b6a682f133852f6798a09c465da95921460cefb384740249890602090a1565b6122816101007fffffffffffffffffffffffffffffffffffffffffffffffffffffffffffff00ff6000541617600055565b6128c5565b608460405162461bcd60e51b815260206004820152602e60248201527f496e697469616c697a61626c653a20636f6e747261637420697320616c72656160448201527f647920696e697469616c697a65640000000000000000000000000000000000006064820152fd5b303b15915081612302575b50386121aa565b6001915060ff1614386122fb565b600160ff82161091506121a3565b601f811161232a575050565b60009060dc82527f3162b0988d4210bff484413ed451d170a03887272177efc0b7d000f10abe9edf906020601f850160051c83019410612385575b601f0160051c01915b82811061237a57505050565b81815560010161236e565b9092508290612365565b601f811161239b575050565b60009060dd82527fac507b9f8bf86ad8bb770f71cd2b1992902ae0314d93fc0f2bb011d70e796226906020601f850160051c830194106123f6575b601f0160051c01915b8281106123eb57505050565b8181556001016123df565b90925082906123d6565b90815167ffffffffffffffff8111610a96576124268161242160dc5461189e565b61231e565b602080601f831160011461247f5750819293600092612474575b50507fffffffffffffffffffffffffffffffffffffffffffffffffffffffffffffffff8260011b9260031b1c19161760dc55565b015190503880612440565b907fffffffffffffffffffffffffffffffffffffffffffffffffffffffffffffffe08316946124d060dc6000527f3162b0988d4210bff484413ed451d170a03887272177efc0b7d000f10abe9edf90565b926000905b87821061252b5750508360019596106124f4575b505050811b0160dc55565b01517fffffffffffffffffffffffffffffffffffffffffffffffffffffffffffffffff60f88460031b161c191690553880806124e9565b806001859682949686015181550195019301906124d5565b90815167ffffffffffffffff8111610a96576125698161256460dd5461189e565b61238f565b602080601f83116001146125c257508192936000926125b7575b50507fffffffffffffffffffffffffffffffffffffffffffffffffffffffffffffffff8260011b9260031b1c19161760dd55565b015190503880612583565b907fffffffffffffffffffffffffffffffffffffffffffffffffffffffffffffffe083169461261360dd6000527fac507b9f8bf86ad8bb770f71cd2b1992902ae0314d93fc0f2bb011d70e79622690565b926000905b87821061266e575050836001959610612637575b505050811b0160dd55565b01517fffffffffffffffffffffffffffffffffffffffffffffffffffffffffffffffff60f88460031b161c1916905538808061262c565b80600185968294968601518155019501930190612618565b603a55565b61269481612173565b7fffffffffffffffffffffffffffffffffffffffffffffffffff00ffffffffffff66ff0000000000006045549260301b16911617604555565b919081101561206b5760061b0190565b3561048a81611193565b9190820180921161182557565b8181029291811591840414171561182557565b9073ffffffffffffffffffffffffffffffffffffffff813561272881610274565b167fffffffffffffffffffff0000000000000000000000000000000000000000000075ffff00000000000000000000000000000000000000006020855494847fffffffffffffffffffffffff00000000000000000000000000000000000000008716178755013561279881611193565b60a01b16921617179055565b680100000000000000008211610a965760385482603855808310612817575b5060386000527f38395c5dceade9603479b177b68959049485df8aa97b39f3533039af5f4561996000915b8383106127fb5750505050565b600160408261280b839486612707565b019201920191906127ee565b600060388152837f38395c5dceade9603479b177b68959049485df8aa97b39f3533039af5f45619992830192015b8281106128535750506127c3565b818155600101612845565b907fffffffffffffffffffffffffffffffffffffffffffffffffffffffffffffff00820191821161182557565b907fffffffffffffffffffffffffffffffffffffffffffffffffffffffffffffffff820191821161182557565b9190820391821161182557565b906128dc6128e1929d9c989993979d9a969a612400565b612543565b63ffffffff811615612c0557811590811580612bfc575b612bd25761138861ffff861611612ba85761294e907fffffffffffffffffffffffffffffffffff00000000ffffffffffffffffffffff6effffffff00000000000000000000006045549260581b16911617604555565b15612b97575080612b87575061296383612173565b60038303612b5d576129776129b292603a55565b7fffffffffffffffffffffffffffffffffffffffffffffff0000ffffffffffffff68ffff000000000000006045549260381b16911617604555565b6129bb81612173565b80612b4e575b5073ffffffffffffffffffffffffffffffffffffffff8116612ac4575b5060018092151514612a7f575b836129f7575b50509050565b60009182905b858210612a4b57505061251c9293612a14916127a4565b11612a21578038806129f1565b60046040517ffe0c06b7000000000000000000000000000000000000000000000000000000008152fd5b612a778294612a71612a6a6020612a6486978c8a6126cd565b016126dd565b61ffff1690565b906126e7565b9301906129fd565b612abf7001000000000000000000000000000000007fffffffffffffffffffffffffffffff00ffffffffffffffffffffffffffffffff6045541617604555565b6129eb565b612b4890612b076f010000000000000000000000000000007fffffffffffffffffffffffffffffffff00ffffffffffffffffffffffffffffff6045541617604555565b73ffffffffffffffffffffffffffffffffffffffff167fffffffffffffffffffffffff00000000000000000000000000000000000000006040541617604055565b386129de565b612b579061268b565b386129c1565b60046040517f27bfeafe000000000000000000000000000000000000000000000000000000008152fd5b6129b29261268661297792603455565b603355506129b29161297790603a55565b60046040517f44b93ba4000000000000000000000000000000000000000000000000000000008152fd5b60046040517f04cff63b000000000000000000000000000000000000000000000000000000008152fd5b508315156128f8565b60046040517fb8a9effe000000000000000000000000000000000000000000000000000000008152fd5b73ffffffffffffffffffffffffffffffffffffffff168015610292578060005260de60205260406000205490600160ff60455460301c16612c6f81612173565b14612c78575090565b600052604160205260406000205481018091116118255790565b73ffffffffffffffffffffffffffffffffffffffff918281167388899dc0b84c6e726840e00dfb94abc6248825ec8114612d2757731e0049783f008a0085193e00003d00cd54003c7114612d1f5760ff92612d1a9216600052607960205260406000209073ffffffffffffffffffffffffffffffffffffffff16600052602052604060002090565b541690565b505050600190565b50505050600190565b15612d3757565b608460405162461bcd60e51b815260206004820152602e60248201527f455243313135353a2063616c6c6572206973206e6f7420746f6b656e206f776e60448201527f6572206f7220617070726f7665640000000000000000000000000000000000006064820152fd5b15612da857565b608460405162461bcd60e51b815260206004820152602560248201527f455243313135353a207472616e7366657220746f20746865207a65726f20616460448201527f64726573730000000000000000000000000000000000000000000000000000006064820152fd5b15612e1957565b608460405162461bcd60e51b815260206004820152602a60248201527f455243313135353a20696e73756666696369656e742062616c616e636520666f60448201527f72207472616e73666572000000000000000000000000000000000000000000006064820152fd5b90816020910312610292575161048a816102d9565b61048a939273ffffffffffffffffffffffffffffffffffffffff60a093168252600060208301526040820152600160608201528160808201520190610436565b919261048a95949160a09473ffffffffffffffffffffffffffffffffffffffff8092168552166020840152604083015260608201528160808201520190610436565b60009060033d11612f2757565b905060046000803e60005160e01c90565b600060443d1061048a5760405160031991823d016004833e815167ffffffffffffffff918282113d602484011117612f9657818401948551938411612f9e573d85010160208487010111612f96575061048a92910160200190610aef565b949350505050565b50949350505050565b9493919092813b612fbb575b505050505050565b600073ffffffffffffffffffffffffffffffffffffffff602095613010604051988997889687947ff23a6e61000000000000000000000000000000000000000000000000000000009d8e875260048701612ed8565b0393165af160009181613171575b506130d45761302b612f1a565b6308c379a0146130a5575b60405162461bcd60e51b815260206004820152603460248201527f455243313135353a207472616e7366657220746f206e6f6e2d4552433131353560448201527f526563656976657220696d706c656d656e7465720000000000000000000000006064820152608490fd5b0390fd5b6130ad612f38565b806130b85750613036565b6130a19060405191829162461bcd60e51b835260048301610479565b7fffffffff00000000000000000000000000000000000000000000000000000000160361310657388080808080612fb3565b60405162461bcd60e51b815260206004820152602860248201527f455243313135353a204552433131353552656365697665722072656a6563746560448201527f6420746f6b656e730000000000000000000000000000000000000000000000006064820152608490fd5b61319391925060203d811161319a575b61318b8183610aef565b810190612e83565b903861301e565b503d613181565b604051906131ae82610a9b565b6001825260208201602036823782511561206b575290565b9190805160005b81811061322f575050906131e19183613443565b60455460481c61ffff1690816131f5575050565b6131fe90612c2f565b1161320557565b60046040517f550ffa9c000000000000000000000000000000000000000000000000000000008152fd5b73ffffffffffffffffffffffffffffffffffffffff8516613253575b6001016131cd565b61325d8185612057565b51906132898673ffffffffffffffffffffffffffffffffffffffff1660005260de602052604060002090565b9182549081018091116118255790915561324b565b9392909193845160005b8181106132be57505093826131e1939495613510565b73ffffffffffffffffffffffffffffffffffffffff9081841661332b575b60019186166132ec575b016132a8565b6132f68186612057565b51613324610db48873ffffffffffffffffffffffffffffffffffffffff1660005260de602052604060002090565b90556132e6565b61334261333b611695838b612057565b5460ff1690565b80156133c3575b6133995760019161335a8287612057565b516133906133888773ffffffffffffffffffffffffffffffffffffffff1660005260de602052604060002090565b9182546128b8565b905591506132dc565b60046040517f765c862b000000000000000000000000000000000000000000000000000000008152fd5b5060455460801c60ff16613349565b156133d957565b608460405162461bcd60e51b815260206004820152602860248201527f455243313135353a206275726e20616d6f756e74206578636565647320746f7460448201527f616c537570706c790000000000000000000000000000000000000000000000006064820152fd5b91909260005b845181101561348757806134606134829285612057565b51610dbc610db4613471848a612057565b5160005260aa602052604060002090565b613449565b509173ffffffffffffffffffffffffffffffffffffffff16156134a957509050565b60005b83518110156129f157806134c361350b9286612057565b516135056134d18386612057565b516134e68360005260aa602052604060002090565b546134f3828210156133d2565b039160005260aa602052604060002090565b55611ffb565b6134ac565b909392919373ffffffffffffffffffffffffffffffffffffffff8092161561355d575b161561353e57509050565b60005b83518110156129f157806134c36135589286612057565b613541565b929060005b855181101561358f578061357961358a9286612057565b51610dbc610db4613471848b612057565b613562565b509092613533565b1561359e57565b608460405162461bcd60e51b815260206004820152602860248201527f455243313135353a2069647320616e6420616d6f756e7473206c656e6774682060448201527f6d69736d617463680000000000000000000000000000000000000000000000006064820152fd5b909161361f61048a93604084526040840190610f9c565b916020818403910152610f9c565b9261366a61048a959373ffffffffffffffffffffffffffffffffffffffff613678941686526000602087015260a0604087015260a0860190610f9c565b908482036060860152610f9c565b916080818403910152610436565b939061048a959361366a916136789473ffffffffffffffffffffffffffffffffffffffff809216885216602087015260a0604087015260a0860190610f9c565b9493919092813b6136d957505050505050565b600073ffffffffffffffffffffffffffffffffffffffff602095613010604051988997889687947fbc197c81000000000000000000000000000000000000000000000000000000009d8e875260048701613686565b6040519061373b82610ab7565b60008252565b6102a4916040519161375283610ab7565b600083526137cc565b1561376257565b608460405162461bcd60e51b815260206004820152602160248201527f455243313135353a206d696e7420746f20746865207a65726f2061646472657360448201527f73000000000000000000000000000000000000000000000000000000000000006064820152fd5b9173ffffffffffffffffffffffffffffffffffffffff83166137ef81151561375b565b6137f8836131a1565b9060409485519261380884610a9b565b60018452602093848101918536843781511561206b57600161382b9352836131c6565b60008581526078845286812073ffffffffffffffffffffffffffffffffffffffff831682526020526040902080549060018201809211611825575581600087518781526001868201527fc3d58168c5ae7397731d063d5bbf3d657854427343f4c083240f7aacaa2d0f62893392a43b6138a6575b5050505050565b6138e5829160009487519586809481937ff23a6e61000000000000000000000000000000000000000000000000000000009a8b84523360048501612e98565b03925af1918291600093613a3f575b50506139a45782613903612f1a565b6308c379a014613977575b5162461bcd60e51b815260206004820152603460248201527f455243313135353a207472616e7366657220746f206e6f6e2d4552433131353560448201527f526563656976657220696d706c656d656e7465720000000000000000000000006064820152608490fd5b61397f612f38565b8061398a575061390e565b6130a1915191829162461bcd60e51b835260048301610479565b7fffffffff0000000000000000000000000000000000000000000000000000000016036139d65750388080808061389f565b5162461bcd60e51b815260206004820152602860248201527f455243313135353a204552433131353552656365697665722072656a6563746560448201527f6420746f6b656e730000000000000000000000000000000000000000000000006064820152608490fd5b613a56929350803d1061319a5761318b8183610aef565b9038806138f4565b919091613a69614b3d565b604580549060ff8260301c16613a7e81612173565b6107895763ffffffff91828116908682018092116118255760581c83161061075f57600194808603613af9575093816102a4949554160116613aeb8163ffffffff167fffffffffffffffffffffffffffffffffffffffffffffffffffffffff000000006045541617604555565b613af361372e565b916137cc565b613b0581939293611f7d565b91613b0f82611f7d565b9360005b838110613b3257505050506102a4939450613b2c61372e565b92613b8e565b88908382818554160116613b718163ffffffff167fffffffffffffffffffffffffffffffffffffffffffffffffffffffff000000006045541617604555565b613b7b8288612057565b5281613b878289612057565b5201613b13565b91909373ffffffffffffffffffffffffffffffffffffffff8316613bb381151561375b565b613bc08651845114613597565b613bcb8387866131c6565b60005b8651811015613c2157613be18185612057565b5190613c0586610d5b613bf4848c612057565b516000526078602052604060002090565b91825490810180911161182557613c1c9255611ffb565b613bce565b5092949390948360006040517f4a39dc06d4c0dbc64b70af90fd698a233a518aa5d07e595d983b8c0526c8f7fb339180613c5c898c83613608565b0390a43b613c6b575b50505050565b613cac9260209260006040518096819582947fbc197c81000000000000000000000000000000000000000000000000000000009a8b8552336004860161362d565b03925af160009181613cf6575b50613cc65761302b612f1a565b7fffffffff0000000000000000000000000000000000000000000000000000000016036131065738808080613c65565b613d0f91925060203d811161319a5761318b8183610aef565b9038613cb9565b90613d1f614b3d565b60455490600160ff8360301c16613d3581612173565b036107895763ffffffff9182613d4d838284166126e7565b9160581c161061075f576131e191613ddb91600243016001613d8f8773ffffffffffffffffffffffffffffffffffffffff166000526041602052604060002090565b0155613dbb8573ffffffffffffffffffffffffffffffffffffffff166000526041602052604060002090565b81815401905516613dd160455463ffffffff1690565b0163ffffffff1690565b63ffffffff167fffffffffffffffffffffffffffffffffffffffffffffffffffffffff000000006045541617604555565b90805b613e1857505050565b80613e5e613e477fffffffffffffffffffffffffffffffffffffffffffffffffffffffffffffffff9386613f38565b60405190613e5482610ab7565b60008252856137cc565b0180613e0f565b90809392935b613e755750505050565b80613ea17fffffffffffffffffffffffffffffffffffffffffffffffffffffffffffffffff9286613f38565b604090815190613eb082610ab7565b86613ec160009384815283896137cc565b613ed0575b5050500180613e6b565b815260436020522060017fffffffffffffffffffffffffffffffffffffffffffffffffffffffffffffff00825416179055388080613ec6565b7f4e487b7100000000000000000000000000000000000000000000000000000000600052601260045260246000fd5b9060405190602082019283526040820152604081526060810181811067ffffffffffffffff821117610a96576040525190209063ffffffff60455460581c1680159283613fcc5781900690600193848301809311611825578492945b613f9d57505050565b613fb685939560005260aa602052604060002054151590565b15613fd15780613fcc5784828194060194613f94565b613f09565b5090925050565b90613fe1614b3d565b604554600260ff8260301c16613ff681612173565b036107895763ffffffff80821691835183018093116118255760581c161061075f576102a491614039565b91909163ffffffff8080941691160191821161182557565b815191929163ffffffff1663ffffffff604591614066613ddb82614061865463ffffffff1690565b614021565b169361407185611f7d565b9160005b86811061408c5750506102a4939450613b2c61372e565b6140968184612057565b5190600191826140a68388612057565b526140be8160005260aa602052604060002054151590565b61411f578015908115614101575b506140d75701614075565b60046040517f3f6cc768000000000000000000000000000000000000000000000000000000008152fd5b90506141186116f0855463ffffffff9060581c1690565b10386140cc565b60046040517ea5a1f5000000000000000000000000000000000000000000000000000000008152fd5b1561414f57565b606460405162461bcd60e51b815260206004820152602060248201527f4f776e61626c653a2063616c6c6572206973206e6f7420746865206f776e65726044820152fd5b6000906040517f713562fe00000000000000000000000000000000000000000000000000000000815230600482015260208160248173ffffffffffffffffffffffffffffffffffffffff7f0000000000000000000000000000000000000000000000000000000000000000165afa6000918161211457506121105750565b6102a4611304612091565b908092918237016000815290565b6020908260405193849283378101604281520301902090565b6005111561217d57565b949390959698979198841561461857614266838261422a565b6142718682546126e7565b90558161427e848361422a565b54116145ee576045549363ffffffff9461429a878783166126e7565b868260581c161061075f5760201c60ff166142b481614243565b156145c45760409a8b519384898c602083019386864694309561435a968995939192608e9795937f9d13a5ba0000000000000000000000000000000000000000000000000000000088527fffffffffffffffffffffffffffffffffffffffff000000000000000000000000809360601b166004890152601888015260601b166038860152151560f81b604c850152604d840152606d830152151560f81b608d8201520190565b03947fffffffffffffffffffffffffffffffffffffffffffffffffffffffffffffffe095868101825261438d9082610aef565b5190206143c3907f19457468657265756d205369676e6564204d6573736167653a0a333200000000600052601c52603c60002090565b6143ce368786610be0565b6143d791614642565b73ffffffffffffffffffffffffffffffffffffffff1673c0ffee06ce3d6689305035601a055a96acd619c68114159081614596575b5061456d571561454d575034614524575b60455460301c60ff1661442f81612173565b6002810361447757505050505082510361444e576102a49394506148f3565b600485517f991f339f000000000000000000000000000000000000000000000000000000008152fd5b90919293965061448981969596612173565b600181036144dc5750916144b66144c2613ddb936144d7956102a49b9c519384916020830196879161421c565b03908101835282610aef565b51902094841661406160455463ffffffff1690565b613e65565b939495505050506144ec81612173565b6144fb576102a4939450614854565b600485517f3f886819000000000000000000000000000000000000000000000000000000008152fd5b60048a517f122d34a8000000000000000000000000000000000000000000000000000000008152fd5b858115614563575b61455e91614cda565b61441d565b603a549150614555565b60048c517f73a8ee18000000000000000000000000000000000000000000000000000000008152fd5b90506145bc6145a3612091565b73ffffffffffffffffffffffffffffffffffffffff1690565b14153861440c565b60046040517f7963e2b5000000000000000000000000000000000000000000000000000000008152fd5b60046040517f9a89c66a000000000000000000000000000000000000000000000000000000008152fd5b60046040517f2c5211c6000000000000000000000000000000000000000000000000000000008152fd5b61048a9161464f9161478d565b91909161465b81614243565b806146635750565b61466c81614243565b600181036146b95760405162461bcd60e51b815260206004820152601860248201527f45434453413a20696e76616c6964207369676e617475726500000000000000006044820152606490fd5b6146c281614243565b6002810361470f5760405162461bcd60e51b815260206004820152601f60248201527f45434453413a20696e76616c6964207369676e6174757265206c656e677468006044820152606490fd5b8061471b600392614243565b1461472257565b60405162461bcd60e51b815260206004820152602260248201527f45434453413a20696e76616c6964207369676e6174757265202773272076616c60448201527f75650000000000000000000000000000000000000000000000000000000000006064820152608490fd5b9060418151146000146147bb576147b7916020820151906060604084015193015160001a906147c5565b9091565b5050600090600290565b9291907f7fffffffffffffffffffffffffffffff5d576e7357a4501ddfe92f46681b20a083116148485791608094939160ff602094604051948552168484015260408301526060820152600093849182805260015afa156106ce57815173ffffffffffffffffffffffffffffffffffffffff811615614842579190565b50600190565b50505050600090600390565b600092835b838110614867575050505050565b60459081549163ffffffff90846148bf7fffffffffffffffffffffffffffffffffffffffffffffffffffffffff000000006001968588818316011691829116178455604051906148b682610ab7565b8b8252896137cc565b6148cc575b505001614859565b6148ec9161140c91541663ffffffff166000526043602052604060002090565b38806148c4565b816148fd91614039565b805191614908575050565b600090815b83811061491a5750505050565b6149248183612057565b51835260436020526040832090600191827fffffffffffffffffffffffffffffffffffffffffffffffffffffffffffffff008254161790550161490d565b9061ffff8092166127100391821161182557565b9060ff6149a38273ffffffffffffffffffffffffffffffffffffffff166000526039602052604060002090565b541615614afb576149e26149d78273ffffffffffffffffffffffffffffffffffffffff166000526039602052604060002090565b5460181c61ffff1690565b91614a24614a1e614a138473ffffffffffffffffffffffffffffffffffffffff166000526039602052604060002090565b5460081c61ffff1690565b93614962565b92614a41614a39603a5461ffff8097166126f4565b612710900490565b614a4b8382614cda565b73ffffffffffffffffffffffffffffffffffffffff84169485614a7057505050505050565b614ac993614a89614a8e93614a3993610db496166126f4565b6126f4565b92614aa3614a9e856037546126e7565b603755565b73ffffffffffffffffffffffffffffffffffffffff166000526036602052604060002090565b90557ff2f90295cdb5dafd392bfc62d7868bcc79e8c6164c820c7cc195d6c8cda8e674600080a2388080808080612fb3565b6000805260396020527f619fcd35f40c77da8aa64d5f98c1fed669135ecc4f245ce6667721b157f7098f805460181c61ffff169290614a2490614a1e90614a13565b60455460201c60ff16614b4f81614243565b60028103614b5a5750565b614b6381614243565b60038103614bdd5750603d544210614bb357614ba96402000000007fffffffffffffffffffffffffffffffffffffffffffffffffffffff00ffffffff6045541617604555565b6102a46000603d55565b60046040517fb3c03577000000000000000000000000000000000000000000000000000000008152fd5b80614be9600492614243565b03614c2a57603d544210614bb357603e5442106102a45760046040517f0734f1ad000000000000000000000000000000000000000000000000000000008152fd5b60046040517f63a2de0f000000000000000000000000000000000000000000000000000000008152fd5b60455460781c60ff16614ca15780800460011481151715611825573403614c7757565b60046040517fc288bf8f000000000000000000000000000000000000000000000000000000008152fd5b8015614cd757808004600103611825576102a49073ffffffffffffffffffffffffffffffffffffffff6040541630903390614d32565b50565b60455460781c60ff16614cf95790614cf1916126f4565b3403614c7757565b8015614d2e576102a491614d0c916126f4565b73ffffffffffffffffffffffffffffffffffffffff6040541630903390614d32565b5050565b614e0d916000806102a4969560405194602097888701957f23b872dd00000000000000000000000000000000000000000000000000000000875273ffffffffffffffffffffffffffffffffffffffff938480921660248a0152166044880152606487015260648652614da386610ad3565b169260405194614db286610a9b565b8786527f5361666545524332303a206c6f772d6c6576656c2063616c6c206661696c656488870152519082855af13d15614e3a573d91614df183610ba6565b92614dff6040519485610aef565b83523d60008785013e614ec8565b8051918215928315614e22575b505050614e57565b614e329350820181019101614e42565b388080614e1a565b606091614ec8565b90816020910312610292575161048a816111ad565b15614e5e57565b608460405162461bcd60e51b815260206004820152602a60248201527f5361666545524332303a204552433230206f7065726174696f6e20646964206e60448201527f6f742073756363656564000000000000000000000000000000000000000000006064820152fd5b91929015614f295750815115614edc575090565b3b15614ee55790565b606460405162461bcd60e51b815260206004820152601d60248201527f416464726573733a2063616c6c20746f206e6f6e2d636f6e74726163740000006044820152fd5b8251909150156130b85750805190602001fd5b60455460281c60ff16614f4e81612173565b60018103614fec57506040517fc617113400000000000000000000000000000000000000000000000000000000815230600482015273ffffffffffffffffffffffffffffffffffffffff9190911660248201526020816044816daaeb6d7670e522a718067333cd4e5afa80156106ce57614fc55750565b614cd79060203d8111614fe5575b614fdd8183610aef565b810190614e42565b503d614fd3565b614ff581612173565b15614ffd5750565b6daaeb6d7670e522a718067333cd4e803b615016575050565b803b15610292576040517f7d3e3dbe000000000000000000000000000000000000000000000000000000008152306004820152733cc6cdda760b79bafa08df41ecfa224f810dceb6602482015260008160448183865af19081615120575b5015614d2e5761510f916020916150b6650100000000007fffffffffffffffffffffffffffffffffffffffffffffffffffff00ffffffffff6045541617604555565b6040517fc617113400000000000000000000000000000000000000000000000000000000815230600482015273ffffffffffffffffffffffffffffffffffffffff90921660248301529092839190829081906044820190565b03915afa80156106ce57614fc55750565b8061512d61513392610a82565b80610408565b38615074565b600036818037808036817f00000000000000000000000000000000000000000000000000000000000000005af43d82803e15615173573d90f35b3d90fdfea26469706673582212202a2b0598ccaee170e0d176698d5e9cde3f54f03e3769b4573f1eda7aa476fbe764736f6c63430008140033",
  "linkReferences": {},
  "deployedLinkReferences": {}
}